:10000000500B0010291500002115000021150000DB
:1000100000000000000000000000000000000000E0
:10002000000000000000000000000000211500009A
:10003000000000000000000021150000010D00007C
:1000400025150000251500002515000025150000C8
:1000500025150000251500002515000025150000B8
:1000600025150000251500002515000025150000A8
:100070002515000025150000251500002515000098
:100080004904000025150000251500002515000075
:1000900025150000ED150000000000000000000024
:1000A00025150000251500002515000000000000A2
:1000B0002515000025150000251500002515000058
:1000C000084B5A6819681A609A68C8025A60DA6858
:1000D0004140D00C50404840090A48409A60D860DE
:1000E0007047C0460000001010B50023CC5CC25C15
:1000F000002C05D0002A05D0A24203D10133F5E738
:10010000012000E0002010BD10B5031C0A210020D2
:100110001A78303AD4B2092C03D8484301338018F6
:10012000F6E710BD10B5021C031C1C78981A002CB1
:1001300003D08C4203D00133F7E70120404210BDC9
:1001400010B5041C20780134002802D001F0C6FA52
:10015000F8E70A2001F0C2FA10BD024B18684342CA
:100160005841704740000150074B00B51A68534290
:100170005A41064B002A04D01968002901D10121F7
:1001800059601A6000BDC046400001507401001063
:10019000044B00205A6800B5824201D0586001200B
:1001A00000BDC04674010010034B00B51A68002A58
:1001B00001D101221A6000BD04C00040034B00B50C
:1001C0001A68002A01D000221A6000BD04C0004055
:1001D000104A114908B5002313700A600F4A8021A4
:1001E00013600F4A13600F4B1A680A431A600E4BD4
:1001F00017221A600D4B32221A600D4B03221A602F
:100200000C4B4A021A600C4B01221A70FFF7CCFF0C
:1002100008BDC046C1060010A0020010B0020010C8
:10022000A4020010808004400CC0004018C00040B0
:1002300014C0004000E100E010E400E0F7B5684AB7
:100240001368002B07DD013B1360002B00D0C5E0D5
:10025000644A9360C2E0644B1A68002A01DD013AE7
:10026000BBE0624D624E2C682278631C2B60002A32
:1002700003D15C4B2C609A60B0E03E2A03D15C4B0A
:100280001A69013204E03C2A04D1594B1A69013A37
:100290001A61E8E7131C20218B434F2B05D16278AC
:1002A00002342C60303A524BF2E7202ADBD04C2B40
:1002B00016D16778A21C391C2A60303910200192AF
:1002C00001F03EFE7061312FCDD1A37803342C6054
:1002D000362B02D101237361C5E7019B2B60C2E776
:1002E000432B10D0442B10D0452B10D0462B10D0D0
:1002F000472B10D0412B10D0422B10D0522BB2D113
:1003000001235B420CE000230AE0022308E00423FF
:1003100006E0052304E0072302E0092300E00B23A5
:1003200062783248A11C01602B2A01D1013305E01B
:100330002D2A01D1013B01E00134046004682C4AFC
:100340002178651C5269056032290ED034290ED0FF
:1003500038290ED031290ED02E2904D1D10F891879
:100360004910521808E0046006E0082204E0042264
:1003700002E0022200E010221C4C216808784D1C8B
:1003800025602E2804D1D10F89184910521807E092
:10039000102A01D1362802D01448016000E0012261
:1003A000002B04DB124908690C2141435B183B2BED
:1003B00001DC591C01D1002106E00D499B00CB183E
:1003C00099690C4B19600121064B9960C8239B0069
:1003D0005A43034B1A60044BD2101A60F7BDC04653
:1003E000A402001074010010B0020010A00200105E
:1003F0000000001018C0004010B50B4A0023C15C7B
:10040000D154C45C111C002C02D00133802BF6D1D6
:10041000064B03221960064B1A6104225A61054BF0
:1004200000221A6010BDC046C1060010A0020010D4
:1004300000000010A4020010024B1A68D2431A6098
:100440007047C04680000150074B10B51A681C1C4D
:10045000D30707D5054B9B68002B01D0FFF7ECFFB6
:100460000123236010BDC04600C00040740100108D
:1004700008B5094BC0221A60084B10211A688A433C
:100480001A60074AD02111601A6820210A431A60B5
:10049000FFF79EFE08BDC046944004400080015016
:1004A000A04004405E4BF7B5002119705D4BD02091
:1004B000197059709970D970197159719971D971F0
:1004C000594B80241860594B04271A6822431A603C
:1004D000574A102410601A6822431A60554A0824AB
:1004E00010601A6822431A60534A802410601A6808
:1004F000A6003A431A60514A1060514A15683543C4
:100500001560504D28601568AC46650064462C4364
:1005100014604D4C20601C6825431D604B4D341CFD
:1005200028601D6880262C43494D1C60D1242C6016
:100530001D68B4460195F500019E2E43454D1E6091
:100540002C601D680195019E6546BD402E43424DBD
:100550001E6028601D68202635431D603F4D08261B
:10056000286018684025284318603D4B01251C6011
:10057000136802202B4313603A4B1C60136803433B
:100580001360394B1C6013681F43384B17601C60A5
:100590001368374F1E43374B16609C89DA89188AD7
:1005A0005B8ABC46324E8E5D0196632E07DC2F1CA3
:1005B000B74001976F46BE883443324308E0019E3E
:1005C0002F1C643EB74001976F46BE8830433343CB
:1005D00066460836765C0196632E04DC2F1CB74015
:1005E0003A4392B205E0019E2F1C643EB7403B4364
:1005F0009BB201310829D5D11E498C81CA8108825C
:100600004B8212B2A021C9059200521824B2146084
:100610001BB2194A9B009B1800B21860F7BDC04678
:10062000C0060010A8020010504004400080005096
:10063000304004402C4004401C40044038400440FA
:100640000080015014400440604004406440044075
:100650006840044074400440344004404C4004402E
:10066000784004407C400440804004409040044076
:10067000042000007401001000000150C343CA436D
:10068000DB17D21730B511401840072800DD0720CE
:10069000072900DD0721154B0C241A5F10241B5F6E
:1006A000134C611AC97B251C0124632902DC8C4090
:1006B000224302E064398C402343295C01206329F2
:1006C00002DC8840824302E0643988408343074962
:1006D0000E24085FA024E4058000001902601220A7
:1006E0000A5E044992005218136030BD7401001074
:1006F0000420000000000150094BA0210E201A5ECA
:10070000C905920052180C20195E0648116012218A
:100710005A5E10215B5E9200121813607047C0464B
:10072000740100100000015010B50C4C0720237814
:10073000D90818400A4B5B5C0341DA0702D5FFF782
:100740009DFF01E0FFF7D8FF23780133DBB2402B98
:1007500000D000E00023237010BDC046C00600108A
:10076000A802001008B500F0D9FF034A034B1A6035
:10077000034A044B1A6008BDDD1600004C07001048
:10078000B11600004807001008B5011C044801F02C
:10079000D7FB044B01381860034B07221A6008BDD1
:1007A00000366E0114E000E010E000E0034B00B5FD
:1007B0001A6810181A688242FCDD00BD4407001058
:1007C000F8B5061C0024375D00253B1C2B41DA07D9
:1007D00004D5281C211CFFF751FF01E0FFF78CFF17
:1007E00001200135FFF7E2FF082DEED10134082C7E
:1007F000E9D1FFF781FFF8BD00B5044A0023C15CD1
:10080000D1540133082BFAD100BDC046A802001014
:1008100007B5019001A8FFF7EFFF07BDF0B5002372
:1008200001260F24C25C151C303D092D01D82A1C5D
:100830000AE0151C613D052D01D8573A04E0151C4E
:10084000413D052D0FD8373A5D104D19334202D086
:100850002F78A74302E02F78120127403A43013353
:100860002A70102BDED1F0BDF0B5002385B00190C9
:100870001A1CCA540133082BFBD100230124019810
:10088000C25C151C303D092D08D9313D052D00D81D
:1008900003E0151C413D052D20D80A351A1C2240C5
:1008A000920003260292DF105A10BF003240D21984
:1008B000271C9740FAB20392321C0326B01A2F1C51
:1008C0000741274205D002980F18BE5C03980643E3
:1008D000BE54013AF1D20133102BD0D105B0F0BD96
:1008E00008B50249FFF79AFF08BDC046A8020010EC
:1008F00030B585B012486946FFF790FF114802A94C
:10090000FFF78CFF0024251C00ABE8001818FFF748
:1009100057FF201C642101F069FB632901D10123E9
:100920005D1B00F0BFFE002806D1962301349B001A
:100930009C42E9D1012000E0002005B030BDC04656
:1009400090200000A12000001FB50E486946FFF767
:1009500065FF0D4802A9FFF761FF0C48FFF74CFD4A
:10096000002401E001231C1B00ABE0001818FFF776
:1009700043FF0748FFF71AFFFFF70AFC0028F3D1EF
:10098000F0E7C04690200000A1200000B220000047
:100990001027000010B500240720E1102040FFF7C9
:1009A0006DFE01340120FFF701FFE10F00233F221C
:1009B000A2424B415B421C40EEE710B50024084BBD
:1009C000CA2149001B68621852000021E000D15280
:1009D00018180822013401F01DFA652CEFD110BD62
:1009E000B406001010B5002305E0E024E4011A1954
:1009F0001278C25401338B42F7DB10BDF8B5114DAC
:100A0000114F80213D60083D281CC900FFF7EAFF17
:100A10000E4C281C211CFFF767FB061E09D0201C6A
:100A2000FFF78EFB3A68CA239B00D05E461EB0419A
:100A300007E0211C0822281C01F0A6F9FFF7BDFFE2
:100A4000301CF8BDBC020010B4060010BB20000032
:100A500008B580210248C90001F08AF908BDC046E6
:100A6000B4020010F0B50022A7B0101C06A9505423
:100A700001320023802AF9D16846037443748374D9
:100A8000C374037543758375C3750293039361E063
:100A900000F00EFE0A2800D080E006AD0027281CDA
:100AA0005D49AF55FFF720FB0190B84207D009A878
:100AB00004A9FFF7B3FE5948FFF742FB34E0281CB6
:100AC0005749FFF711FB061E30D068462330FFF769
:100AD0001BFB019E071C65286ED868462330202129
:100AE000FFF720FB002867DB4E4D23222B686A446A
:100AF000461C9619F9005918301CFFF78FFE301C60
:100B000004A9FFF78BFE301C2021FFF70BFB6423A9
:100B1000002804DB01303018FFF7F6FA031C953784
:100B20002A68FF377F00BB52002645E0281C3E495B
:100B3000FFF7DAFA0190002803D0FFF73EFF341CDC
:100B4000F2E7281C3949FFF7CFFA071E04D03848CE
:100B5000FFF7F6FA0124E7E7281C3649FFF7C4FA45
:100B6000061E04D03448FFF7EBFA3C1CDCE7281CD7
:100B70003249FFF7B9FA071E03D0FFF769FF304883
:100B800009E0281C2F49FFF7AFFA3E1C002813D0BC
:100B9000FFF734FF2C48FFF7D3FA0DE00D280BD0F8
:100BA0007E2E09DC06AB9855013605E00020029345
:100BB000039001E0141C039200F074FD002800D0A3
:100BC00066E7002C03D104A8FFF7FAFDF4E7154D02
:100BD000029A2B68D0001818FFF7F2FD029B0398C9
:100BE000953301302968FF3303905B005B5E9842C8
:100BF000E2DB029B01331A1C653A501E82415242CD
:100C0000CA20400013401A185200525E002ACDD16B
:100C100002989842EED1CDE7C4200000D120000018
:100C2000D6200000B4060010E2200000EF200000F3
:100C3000F6200000FA20000001210000062100003B
:100C40000D21000012210000192100000E4B80220E
:100C5000196812020A431A600C4BF02252001A6003
:100C60000B4B40211A680B488A431A600A4A022338
:100C70001360002101220160026008480360084BF4
:100C800019601A607047C046808004402480044088
:100C900038820440D4800440D080044070800440F6
:100CA00074800440084B02211A680A431A60074BFB
:100CB00004211A680A431A60054B03211A680A4383
:100CC0001A6030BF7047C0460080034010ED00E05E
:100CD0003882044008B5074B1A68074B002A00D138
:100CE0005A615A6901325A61044B9A4201DDFFF799
:100CF000D9FF08BD4000015074010010400D0300F1
:100D000008B5064B1A6801321A60FFF70DFDFFF7B0
:100D10002BFAFFF793FAFFF7DDFF08BD4407001039
:100D2000F0B587B00C1C04A901930092FFF79CFD5D
:100D3000002320E0002A17DB0398002814D1072A9B
:100D400012DC614607290FDC104E04A93019C95C7A
:100D5000C75C012629419640B7430D1C0121C754A9
:100D60000D4201D03E43C6540132009E0C98951BA3
:100D70008542DFDB0133019EB34205DA1819844650
:100D8000C00F009A0390F0E707B0F0BDB80600105E
:100D9000F0B593B0B448FFF72FFBFFF7F9F9B34C68
:100DA000B348211CFFF760FD201CFFF725FDFFF76E
:100DB000EFF9002802D1FFF783F9F0E7AD4C0023EB
:100DC0002360251C6420FFF7F1FCAB4B1B68002B54
:100DD00004D12A68A94B9A42F4DD43E1A8490023D3
:100DE00023600EAA0B1C101C103370CB70C01B6844
:100DF0000CAA03600B1C203311CB11C2A148FFF7D2
:100E0000FBFA0825994E002408272A1C34707470B8
:100E1000B470F47034717471B471F471083A944818
:100E2000211C3B1C0097FFF77BFF2A1C211C3B1C4D
:100E300095480097FFF774FF301CFFF7DDFCC820D2
:100E400068439130FF30013DFFF7B0FCA542D9D196
:100E5000FFF736F9032318400490FFF731F9012317
:100E600018400F2403902E1CFFF792F92F1C0B95AE
:100E700008950594079402950A9506950FE0059646
:100E800002E00596039E0A96002607E0039C05965D
:100E90000A94F9E7039E029F0A960026039373487B
:100EA0000024047044708470C470047144718471AF
:100EB000C4710899069807221140830009913833BC
:100EC00069465858099B08215A4200910423211C65
:100ED000FFF726FF049A694693003833585809995A
:100EE00008235A1A0093211C0423FFF719FF0A98BC
:100EF0000B9C830007223033694658581440042164
:100F00000823624200930B1CFFF70AFF039869460F
:100F1000830030335B580421099308231A1B009384
:100F200009980B1CFFF7FCFE5048FFF765FC0A20F0
:100F3000FFF73CFC002F06D1FFF72AF9002803D069
:100F40005248FFF759FA0127029C002C35D1079C23
:100F50000135A54231D1089C013408940898072432
:100F600004401CD14A48FFF747FAFFF7A9F80621C9
:100F700000F0DCFF0298CB0F03228A4243415B4220
:100F80001940002F0ED06D000795642D10DD049DD3
:100F9000271C0695051C0120049102900DE0079581
:100FA000029D0AE0049C0795069404913D1C04E010
:100FB000049D01270695029D0491059C0136039B23
:100FC000A64200D06AE70B9C01340B94640700D062
:100FD00055E7029C012C02D12D48FFF70DFAFFF7CF
:100FE0006FF80323029C03405A425341012C00D066
:100FF00047E7002F00D149E776000596642E00DC14
:1010000048E7069B039D2B4301D1224805E0039E40
:10101000012E01D1204800E02048FFF7EDF9FFF74D
:10102000B7F8089C072525406D42069E0EABB2001E
:101030000824D05800212A1C04230094FFF770FED6
:10104000042100220B1C09980094FFF769FE074851
:10105000FFF7D2FB6420FFF7A9FBFFF799F8002800
:10106000E3D097E613B0F0BD1E210000B8060010D3
:101070002821000044070010400001501027000004
:101080000420000064210000392100004A210000F2
:101090004D21000051210000592100006021000075
:1010A00070B55948FFF7A8F9FFF772F8574C584840
:1010B000211CFFF7D9FB201CFFF79EFBFFF768F808
:1010C0000028F3D0534D281CFFF796F9211C5248F5
:1010D000FFF7CAFB201CFFF78FFB5048FFF766FBAA
:1010E000281CFFF789F9211C4D48FFF7BDFB201C88
:1010F000FFF782FB4948FFF759FB281CFFF77CF9F3
:10110000211C4848FFF7B0FB201CFFF775FB434844
:10111000FFF74CFB4448FFF76FF9211C4348FFF7EA
:10112000A3FB201CFFF768FB3C48FFF73FFBFF23B6
:1011300023706370A370E37023716371A371E37113
:101140003B4B00251D60FFF723F8304C061C0028A0
:1011500052D0002D50D13748FFF74EF9344E0023BE
:1011600023706370A370E37023716371A371E371E3
:1011700031483368FA21C01A890000F0E1FE051CED
:101180002E48FFF739F9211C2D48FFF76DFB316818
:101190002C4E301C00F02EFC301C291C00F02AFCC8
:1011A000281C0A2100F07EFE274E80003018211CEA
:1011B0008068FFF759FBA37940221343201CA371D9
:1011C000FFF71AFB1548FFF7F1FA281C0A2100F077
:1011D000ADFE89007618B068211CFFF745FB201C86
:1011E000FFF70AFB0D48FFF7E1FA201CFFF704FBAD
:1011F0000A48FFF7DBFA54E7201CFFF7FDFA0A2044
:10120000FFF7D4FA351C9EE767210000B8060010EE
:1012100074210000852100008721000010270000B4
:1012200098210000A921000056210000BA210000E9
:1012300044070010CB21000040420F00CE210000E7
:10124000D4210000E52100000001001010B50023AA
:1012500007E0084A11680022914200D1FF22E254BF
:101260000133054C072BF4DD201CFFF7C5FA0023E2
:10127000EFE7C04640000150B806001070B5644862
:10128000FFF7BAF8FEF784FF624C6348211CFFF7B2
:10129000EBFA201CFFF7B0FAFEF77AFF0028F3D034
:1012A0005E4B00221A601C1C6420FFF77FFA5C4B27
:1012B0001B68002B04D122685A4B9A42F4DDA6E049
:1012C000594D281CFFF798F8524C5848211CFFF73D
:1012D000CBFA201CFFF790FA5248FFF767FA281C58
:1012E000FFF78AF8211C5248FFF7BEFA201CFFF7CF
:1012F00083FA4C48FFF75AFA281CFFF77DF8211CA7
:101300004C48FFF7B1FA201CFFF776FA4548FFF783
:101310004DFA4948FFF770F8211C4848FFF7A4FA36
:10132000201CFFF769FA3F48FFF740FAFF23201C13
:1013300023706370A370E37023716371A371E37111
:10134000FFF75AFA354B00241C60FEF721FFFEF729
:101350001FFF0028FBD03A48FFF74EF82D4D07231A
:101360002340E21001219140EA5C281C8A430134A9
:10137000EA54FFF741FA402CE9D13248FFF73CF834
:10138000291C3148FFF770FA244D304C2968201C85
:1013900000F030FB2B682E48D917890ECB18991115
:1013A00000F0CEFD051C291C201C00F023FBFA2DAB
:1013B00000D9FA25281C0A2100F074FD254E154C91
:1013C00080003018211C8068FFF74EFAA379402274
:1013D0001343201CA371FFF70FFA1248FFF7E6F939
:1013E000281C0A2100F0A2FD89007618B068211C93
:1013F000FFF73AFA201CFFF7FFF90A48FFF7D6F982
:10140000201CFFF7F9F90748FFF7D0F937E770BD5F
:10141000E9210000B8060010EF2100004407001089
:1014200040000150102700008521000087210000A6
:1014300098210000A921000056210000BA210000D7
:1014400000220000CE210000D4210000E521000090
:10145000A086010000010010F7B5071C01910A25C4
:1014600028E0174B174800225A61FF23037043708E
:101470008370C370037143718371C371131CE25C89
:10148000C2540133082BFAD1FFF7B6F95A260A20C5
:10149000FFF78CF9FEF77CFE00280FD1013E002EED
:1014A000F5D10134019BE21B083B9A42D9DB013D97
:1014B000002D01D03C1CF5E7FFF7F4FB0120FEBD39
:1014C00074010010B806001010B5FFF74BF9FEF7D5
:1014D000E9FFFEF7CDFF0D4A0D4B1A600D4B0722B9
:1014E0001A60FFF73FF90C4B1B68002B03D16420F7
:1014F000FFF75CF9F7E7094C28346421201CFFF75B
:10150000ABFFFFF745FCFFF7B9FEF6E7CF0700009A
:1015100014E000E010E000E0400001500420000072
:1015200000B5FEE700B5FEE71F4A00231F4820492B
:101530001360204C012203600B600A6025680326BB
:10154000B543154325601C4C802523601B4C23604C
:101550001B4B226081241C601A4B1C68AC431A4D43
:101560001C60031C2C6801201442FBD0174A184C45
:10157000106003221A6000230B60164A08601649A7
:1015800016481160164902E0E558043315601A1830
:101590008A42F9D3134B144A002100E002C393425C
:1015A000FCD3FFF791FFFEE75081044070800440B8
:1015B0007480044010C003404080044044800440D4
:1015C00008800440388204400C8004407880044045
:1015D00030240000808004405F0001000000001003
:1015E000740100107401001050070010F7B528496D
:1015F000284A012513682B4248D107221340022BA9
:101600001ED02548042B3DD1244D254C6A887F26C9
:10161000AB880BE027687F2B08DCFFB21F4DBC4670
:10162000AF18654601323D7232400133076801252B
:101630002F42EFD1194892B29BB242808380D7E704
:101640008A89131E1CD01025ED1A0A89104C0195A9
:10165000134E7F2705E0A018007C013230603A402D
:10166000013B019DE818C0B284466546201C002D50
:1016700001D0002BEFD192B29BB202818381B7E7F8
:10168000CA81B5E70368064B1B68B1E7F7BDC046E2
:101690000C02001008800040148000408C010010F3
:1016A00000800040014B98887047C0468C010010B4
:1016B00000B5094B9A88002AFCD01A889918087A34
:1016C00001327F210A401A8072B69A88013A92B29A
:1016D0009A8062B600BDC0468C01001000B50D4B6B
:1016E0009A897F2AFCD872B6DA89002A0BD05A89E7
:1016F0009918087401327F210A405A819A8901326F
:1017000092B29A8103E00122DA81034B186062B63B
:1017100000BDC0460C0200100080004010B572B63B
:101720001A4AD12313601A4A1A4813601A4B8022AE
:10173000196852010A431A60184B02221A60184AAB
:10174000184983231360042400230B6004601648A7
:101750008524046003201060144A87201060144A16
:1017600080201060134A138153819381D381124AE0
:1017700013805380938007230B60104BC0221A7094
:101780000F4B82031A6062B610BDC046A8400440E9
:10179000A4400440008000408080044098800440C1
:1017A0000C800040048000402880004008800040F9
:1017B000308000400C0200108C01001015E400E0A5
:1017C00000E100E010B5041C0A2802D10D20FFF74B
:1017D000F9FF074A1368002B03D01C700133136014
:1017E00005E0044B1B68002B01D0201C984710BD5E
:1017F0009C0200104C07001010B5041C02E00134DC
:10180000FFF7E0FF20780028F9D110BDF0B5071CE4
:101810008BB00C1C00E0029C3878002800D1D5E089
:10182000252801D001376DE07D78302D03D1BD78BA
:101830000126033707E02D2D02D00237002602E0F3
:10184000BD7802260337002103910A2206E0039B9C
:1018500053435D19303D03953D7801372B1C303BD8
:10186000092BF4D920232A1C9A434C2A03D10423A0
:101870003D781E430137002D00D1A7E02B1C602DC1
:1018800001D9203BDBB24F2B43D006D8432B30D0BD
:10189000442B09D0422B34D138E0552B04D0582B9F
:1018A0002DD0532B2DD101E00A2133E02568221DD4
:1018B00002922B1C5C1B01335A1E1278002AF9D1AC
:1018C00004E02020FFF77EFF341C01E0B30704D4BE
:1018D0000399661C8C42F4D3341C281CFFF78CFF40
:1018E00003E02020FFF76EFF0134039A9442F8D3FF
:1018F00091E7231D20780293FFF764FF8BE7102107
:1019000008E0281CFFF75EFF029484E7022204929D
:1019100001E008210491221D029224680194019A99
:10192000002A05DA442B03D15242082301921E43B8
:101930000023059300E005940198049900F0F6FA5D
:101940000198CCB2049900F0ADFA0190092C05D9A8
:101950000723782D00D127231C19E4B2059A3034CF
:1019600006A95454141C01340F23A34202D3019935
:101970000029E0D1320704D52D2306A90B55059C7B
:10198000023420220192F30701D530210191251C58
:10199000B20704D508E00198FFF714FF351C039B3C
:1019A0006E1C9D42F7D3351C013C182109196A466B
:1019B000885CFFF707FF002CF6D103E02020FFF73B
:1019C00001FF0135039B9D42F8D324E70BB0F0BD26
:1019D000074B70B51D680C1C18601E1C02E001341A
:1019E000FFF7F0FE20780028F9D1356070BDC046C1
:1019F0004C0700100FB407B504A908C9181C0191C1
:101A0000FFF704FF03B008BC04B018470EB417B5C5
:101A100005A904C9064C01912060101CFFF7F6FED1
:101A2000226800231370236017BC08BC03B018475A
:101A30009C0200100EB433B5064C05A908C92568F0
:101A40002060181C0191FFF7E1FE256033BC08BC43
:101A500003B018474C07001070B5051C1D481E1C2C
:101A6000141CFFF7C7FF022E1FD0042E26D0012E14
:101A70002BD12E1C04E031781748FFF7BBFF01364D
:101A8000731BA342F7DB2020FFF79CFE2E1C08E00F
:101A90003078031C203B5E2B00D92E20FFF792FEEE
:101AA0000136731BA342F3DB0FE029880B48013C8E
:101AB0000235FFF79FFF002CF7D106E002CD084862
:101AC000013CFFF797FF002CF8D10A20FFF77AFEC0
:101AD00070BDC046132400001A240000202400001A
:101AE00026240000134B70B51B680024051C0E1C37
:101AF000A34201D100201CE00E4B1B689847002830
:101B0000F8D00D280FD0082803D1002C01D0013CBB
:101B100006E01F28F0DD731E9C42EDDA28550134E3
:101B2000FFF750FEE8E700230A202B55FFF74AFE97
:101B3000012070BD4807001038B5044C25682060AE
:101B4000081C111CFFF7CEFF256038BD48070010A8
:101B5000002370B5021C0B6001E0013010601068BA
:101B60000378202BF9D000262D2B03D1431C1360C2
:101B700043780126302B1BD11068431C1360437837
:101B8000622B06D0782B09D1831C13608378102434
:101B900013E0831C1360837802240EE00120202BC5
:101BA00029D9181C30380824092806D9002022E039
:101BB000181C30380928F9D80A24002014E0602BBA
:101BC00001D9203BDBB21D1C303DEDB2102D03D9F5
:101BD000373BDDB2092DE9D9A542E7D2604313684E
:101BE00028185D1C15605B78202BE8D8002E00D0EB
:101BF00040420860012070BD00B537238BB00093D0
:101C0000684605A9024B984706980BB000BDC04630
:101C1000F11FFF1F00B536238BB00093684605A95E
:101C2000024B984706980BB000BDC046F11FFF1F3E
:101C300000B53A238BB00093684605A9024B98473C
:101C400006980BB000BDC046F11FFF1F00B535233D
:101C50008BB0009301900291684605A9024B98470A
:101C600005980BB000BDC046F11FFF1F00B534231F
:101C70008BB00093054B019002910393684605A930
:101C8000034B984705980BB000BDC046C05D0000EF
:101C9000F11FFF1F00B532238BB00093019002911A
:101CA000684605A9024B984705980BB000BDC04691
:101CB000F11FFF1F00B533238BB00093054B01913B
:101CC000029004936846039205A9034B9847059830
:101CD0000BB000BDC05D0000F11FFF1F00B5382331
:101CE0008BB00093019102900392684605A9024BC4
:101CF000984705980BB000BDF11FFF1F70B5061C7B
:101D000007200D1C011CFFF7A1FF002806D10720AA
:101D1000011CFFF7BFFF00280DD020E00720011CA9
:101D2000FFF7B8FF00281CD10720011CFFF79EFF1A
:101D30000028ECD017E0E021301CC9012A1CFFF775
:101D4000B9FF041E11D1E021301CC9012A1CFFF784
:101D5000C5FF031C201C002B09D0052006E0032032
:101D600004E0012002E0022000E00420404270BDB7
:101D700008B572B6FFF7C2FF62B608BDE020C00129
:101D80007047802040017047F0B50F2A38D90B1CEE
:101D900003439C0739D1131C103B1B0901331B0162
:101DA000CC18051C0E682E604E686E608E68AE60A2
:101DB000CE681031EE6010358C42F3D10F25C31878
:101DC0001540032D24D9043DAD08AF000437AC46BF
:101DD000211CE7191D1C40C940C5B942FBD1614611
:101DE0000131890003252A4064185B18002A06D0B7
:101DF0009A1821780134197001339342F9D1F0BD5A
:101E00000C1C031C002AF3D1F9E7031C0C1CEFE7A0
:101E10002A1CF7E770B583073ED0541E002A3AD03B
:101E2000CEB2031C032503E0621E002C33D0141C29
:101E30001E7001332B42F7D1032C24D9FF220A4014
:101E400015022A4315042A430F2C28D9261C103EBC
:101E50003609013636019E191A605A609A60DA60B6
:101E600010339E42F8D10F231C40351C331C032C29
:101E700009D9231F9B0801339B00EB1804C59D4221
:101E8000FCD103221440002C05D0C9B21C191970D2
:101E90000133A342FBD170BD031C141CCCE71D1CF5
:101EA000E7E7C046002934D00123002210B488425D
:101EB0002CD301242407A14204D2814202D2090179
:101EC0001B01F8E7E400A14204D2814202D249009A
:101ED0005B00F8E7884201D3401A1A434C08A0423D
:101EE00002D3001B5C0822438C08A04202D3001BD3
:101EF0009C082243CC08A04202D3001BDC082243EA
:101F0000002803D01B0901D00909E3E7101C10BC0D
:101F10007047002801D00020C04307B4024802A146
:101F20004018029003BDC046D90000000029F0D03F
:101F300003B5FFF7B9FF0EBC4243891A1847C046E4
:101F4000002941D010B4041C4C40A44601230022B7
:101F5000002900D54942002800D5404288422CD3B0
:101F600001242407A14204D2814202D209011B01AB
:101F7000F8E7E400A14204D2814202D249005B00AA
:101F8000F8E7884201D3401A1A434C08A04202D312
:101F9000001B5C0822438C08A04202D3001B9C0853
:101FA0002243CC08A04202D3001BDC0822430028B5
:101FB00003D01B0901D00909E3E7101C6446002C7B
:101FC00000D5404210BC7047002806D003DB00203B
:101FD000C043400801E08020000607B4024802A187
:101FE0004018029003BDC046190000000029EBD044
:101FF00003B5FFF7A7FF0EBC4243891A1847C04636
:102000007047C04604026D03646C056706080966E4
:1020100007650B0A39210000BE230000CF23000012
:10202000E0230000F1230000022400000000000073
:1020300000000000007E09097E0000007F08087F84
:10204000007E09097E007F090906007F0909060054
:10205000030C700C030000007F06187F007F4949C5
:1020600049001F601F601F000000030C700C03007C
:102070007F494949007E09097E007F090976005F92
:10208000005F0000000000000000000000000000F1
:10209000303039386534316631666534393830303E
:1020A000003038383465343365336565343834305E
:1020B00038004344453243444532004D41544C4579
:1020C000443030004D41544C45442053484F572034
:1020D0000053484F57004D41544C454420534554FC
:1020E00020004D41544C454420434C454152004D45
:1020F00041544C45442052554E004D41544C4544AA
:102100002053544F50004D41544C454420534156A8
:1021100045004D41544C4544204C4F414400433808
:10212000473843383E4734006331353266346432D1
:102130003031346134353330003030343934626515
:1021400066346461396166303000413800433136AD
:102150000047313652384732004332433843380063
:10216000433845384738004C3845523845473136B2
:102170004531360061666561616130303637323530
:102180003235373700430030303338303430343371
:102190003830343034333800303033383034303441
:1021A000303831303230336300303031383238300B
:1021B00038303830383038336300303037333935E1
:1021C00038353835623539353736004134004C38CA
:1021D0004345470030306339616161636163616128
:1021E000616136390025640A004C3845474700389C
:1021F00061613263633030363539356630313000F5
:10220000413136003730383839386138633838383A
:1022100037303030003230363061303230323032A8
:102220003066383030003730383830383038333076
:10223000633066383030003730383830383330303B
:102240003838383730303000333035303930393085
:1022500039306638313030300066383830663030EA
:102260003830383838373030300037303830663032
:102270003838383838383730303000663838383009
:102280003831303130323032303030003730383859
:102290003838373038383838373030300037303821
:1022A0003838383838373830383730303000373011
:1022B000383838383838663838383838303000668A
:1022C00030343834383730343834386630303000D1
:1022D00037303838383038303830383837303030B8
:1022E0000066303438343834383438343866303076
:1022F0003000663838303830663838303830663834
:102300003030006638383038306638383038303859
:1023100030303000373038383830383039383838A5
:102320003738303000383838383838663838383848
:1023300038383830300037303230323032303230A6
:1023400032303730303000333831303130313031A5
:102350003039303630303000383839306130633021
:102360006130393038383030003830383038303833
:1023700030383038306638303000383864386438B7
:102380006138613861383838303000383863386344
:1023900038613839383938383830300037303838E3
:1023A00038383838383838383730303000663038D8
:1023B00038383838386630383038303030003030DF
:1023C00034396562656665643439346630300030AE
:1023D000303436346634366566353934663030002C
:1023E000303065363466653634666539646630305B
:1023F0000030303630663036306630393066303056
:102400003000303039306230663064303930663018
:102410003030002530386C582000202530325800EC
:0D242000202530345800202530384C58005D
:1024300015CD5B07E5559A15B53B121F33134905BA
:102440000300000004000000C1110000C2100000E1
:10245000D10F0000EE0E0000170E00004D0D000021
:102460008E0C0000D90B00002F0B00008E0A00001C
:10247000F709000067090000E0080000610800009B
:10248000E8070000770700000B070000A606000021
:1024900047060000EC050000970500004705000016
:1024A000FB040000B30400007004000030040000CE
:1024B000F4030000BB030000850300005303000089
:1024C00023030000F6020000CB020000A30200007C
:1024D0007D020000590200003802000018020000CE
:1024E000FA010000DD010000C2010000A9010000A6
:1024F000910100007B010000650100005101000016
:102500003E0100002C0100001C0100000C01000035
:10251000FD000000EE000000E1000000D40000001B
:10252000C8000000BD000000B2000000A8000000CC
:102530009F00000096000000042200001522000009
:102540002622000037220000482200005922000005
:102550006A2200007B2200008C2200009D220000E5
:10256000AE220000BF220000D0220000E1220000C5
:10257000F2220000032300001423000025230000A2
:102580003623000047230000582300006923000081
:102590007A2300008B2300009C230000AD23000061
:0425A000E80300004C
:00000001FF
